:020000040800F2
:1000000030070020C1010008B1290008DD1E0008EA
:10001000AD290008070A0008992A0008000000001E
:10002000000000000000000000000000B7290008E8
:100030000B0A000800000000B5290008B9290008D3
:10004000DB010008DB010008DB010008DB01000820
:10005000DB010008DB010008DB010008DB01000810
:10006000DB010008DB010008DB010008DB01000800
:10007000DB010008DB010008DB010008DB010008F0
:10008000DB010008DB010008DB010008DB010008E0
:10009000DB010008DB010008DB010008DB010008D0
:1000A000DB010008DB010008DB010008DB010008C0
:1000B000DB010008DB010008DB010008DB010008B0
:1000C000DB010008DB010008DB010008DB010008A0
:1000D000DB010008DB010008DB010008DB01000890
:1000E000DB010008DB010008DB010008DB01000880
:1000F000DB010008DB010008DB010008DB01000870
:10010000DB010008DB010008DB010008DB0100085F
:10011000DB010008DB010008DB010008DB0100084F
:10012000DB010008DB010008DB010008DB0100083F
:10013000DB010008DB010008DB010008DB0100082F
:10014000DB010008DB010008DB010008DB0100081F
:10015000DB010008DB010008DB010008DB0100080F
:10016000DB010008DB010008DB010008DB010008FF
:10017000DB010008DB010008DB01000800000000D3
:10018000DB010008DB010008DB010008DB010008DF
:10019000DB010008DB010008DB010008DB010008CF
:1001A0000000000000000000DB010008DFF80CD0B8
:1001B00000F0C6FB004800478D39000830070020DA
:1001C0000648804706480047FEE7FEE7FEE7FEE7F1
:1001D000FEE7FEE7FEE7FEE7FEE7FEE77D2A000812
:1001E000AD0100082DE9F05F0546002092469B46D0
:1001F00088460646814640241BE02846414647463D
:10020000224600F0B7FA53465A46C01A914110D31D
:1002100011461846224600F09EFA2D1A67EB010897
:100220004F4622460120002100F095FA17EB000905
:100230004E41201EA4F10104DFDC484631462A4627
:100240004346BDE8F09F2DE9F0410024061B2546FA
:1002500071F1000605DA01240027D0EB070067EBF7
:100260000101161E73F1000605DA0027D2EB070222
:10027000012567EB0303FFF7B5FF86460E461746D9
:100280009C46AC4204D00025D0EB050E65EB010680
:1002900024B10020D2EB000760EB030C704631461E
:1002A0003A466346BDE8F081D2B201E000F8012B86
:1002B000491EFBD270470022F6E710B513460A46E6
:1002C00004461946FFF7F0FF204610BD2DE9FE4F0A
:1002D000804681EA0300C00F0C46009021F00041E7
:1002E00023F00045B8EB0200A94105D24046214663
:1002F00090461C460B46024623F00040104347D070
:10030000270DC7F30A00C3F30A510290401A019067
:1003100040286BDAC3F3130040F4801B0098924628
:1003200020B10023D2EB030A63EB0B0B0198594673
:10033000C0F14002504600F00EFA06460D46504607
:100340005946019A00F026FA10EB0800614100249A
:1003500087EA115284EAE7731A4340D0009A62B3E5
:10036000019A012A4FEA075215DC001B61EB0201DA
:100370004FF0004202EA0752CDE90042001C41F56D
:10038000801132462B4600F05DFA03B0BDE8F08FD5
:1003900040462146F9E7001B61EB0201001C41F5D4
:1003A000801300185B412018A2F5001747EB0301EA
:1003B00040EAD570B6196D4111E06D084FEA360676
:1003C00045EAC0754FEA0752001B61EB0201001CB1
:1003D00041F5801149084FEA300000195141324679
:1003E0002B4603B0BDE8F04F00F01DBA0098012283
:1003F00040000023D0EB020263EBE073009821463B
:100400004FEAE074B8EB000061EB0401E9E783F028
:1004100000435BE781F0004158E72DE9FE4F81EA98
:10042000030404F0004421F0004100944FF0000B5D
:1004300023F0004350EA01045ED052EA03045BD08B
:10044000C3F30A54C1F30A552C44A4F2F3340194C3
:10045000A0FB0254C1F3130141F48011C3F3130351
:1004600043F4801301FB024400FB034E840A970A05
:1004700044EA815447EA8357A4FB076802958D0A32
:1004800005FB07854FEA932C04FB0C542705029DBE
:100490004FEA065847EA1637B5EB08056EEB070C2E
:1004A000870E920E47EA811742EA8312A7FB0201E8
:1004B000B6EB0B0164EB00042B0D43EA0C335E1822
:1004C00044EB1C50DA465146E7FB0201C5F3130426
:1004D0004FEA0B3343EA14534FEA0432019C43EAD8
:1004E0000603A4F10C040294009CCDE900B400F0D2
:1004F000A9F903B0BDE8F08F00200146F9E72DE926
:10050000F04D81EA030404F0004B21F0004514464D
:100510004FF0000A23F0004150EA050220D054EACF
:1005200001021DD0C5F30A570246C5F31303C1F3F8
:100530001300C1F30A5640F4801543F48013A7EB6F
:100540000608101BD64608F2FD3873EB050002D3EF
:1005500008F1010801E092185B41B8F1000F03DADD
:1005600000200146BDE8F08D00204FF480110646C2
:1005700084460EE0171B73EB050705D3121B63EBD4
:10058000050306434CEA010C49084FEA3000921873
:100590005B4150EA0107EDD152EA030012D082EA32
:1005A000040083EA0501084305D0101BAB4106D2C5
:1005B0000122002306E000224FF0004302E06FF02A
:1005C000010253101AEB06004CEB085110EB0A0025
:1005D00041EB0B01BDE8F04D00F025B9F0B4CA17AE
:1005E000CB0F50405140C61841F100054FEAC3728D
:1005F000314628004FF0960303D0B623F0BC00F03C
:10060000E4B830460021F9E70EB5C10F80EAE0708A
:100610000844CA07002140F233438DE80E000A4621
:100620000B4600F00FF903B000BD0EB540F23341A8
:1006300002910021CDE900110A460B4600F002F9B3
:1006400003B000BD3EB5CA17CB0F00245040514047
:10065000C0186141DA0740F233430094CDE9012329
:100660002246234600F0EEF803B030BD10B500F08E
:10067000004420F00040C20DC0F3160040F400001A
:100680007F2A02DA0020014610BD0021962A03DCF1
:10069000C2F19602D04002E0963A00F05CF8002CDD
:1006A000F2D00023D0EB030063EB010110BD70B565
:1006B000C1F30A5201F000450024C1F3130140F2D6
:1006C000FF3341F480119A4202DA0020014670BDE6
:1006D00040F233439A42A2F2334203DC524200F02A
:1006E00049F801E000F037F82C43F0D00023D0EBBC
:1006F000030063EB010170BD00F0004230F00040E8
:100700000AD0C10D01F56071C0F3160042EA015133
:10071000C20840071143704700200146704701F0AE
:10072000004330B421F0004150EA010206D00A0D26
:10073000A2F56072C1F31301002A02DC30BC002074
:100740007047440F44EAC104C100E01830BC00EB1C
:10075000C25000F031B8202A04DB203A00FA02F13E
:10076000002070479140C2F1200320FA03F319439F
:1007700090407047202A04DB203A21FA02F0002141
:10078000704721FA02F3D040C2F1200291400843A1
:1007900019467047202A06DBCB17203A41FA02F0AF
:1007A00043EAE07306E041FA02F3D040C2F12002CE
:1007B00091400843194670470029A8BF7047401C64
:1007C000490008BF20F00100704710B4B0FA80FC67
:1007D00000FA0CF050EA010404BF10BC704749B1A4
:1007E000CCF1200421FA04F411FA0CF118BF012114
:1007F00021430843A3EB0C01CB1D4FEA00614FEAF4
:10080000102042BF002010BC704700EBC3501044C2
:100810000029A4BF10BC7047401C490008BF20F04D
:10082000010010BC704710B5141E73F1000408DA03
:10083000401C41F1000192185B411A4301D120F0A4
:10084000010010BD2DE9F04D92469B4611B1B1FA61
:1008500081F202E0B0FA80F220329046FFF77BFF8F
:1008600004460F4640EA0A0041EA0B0153465A4645
:10087000084313D0114653EA010019D0C8F14002D1
:100880005046FFF777FF05460E465046594642460A
:10089000FFF761FF084305D0012004E020463946F8
:1008A000BDE8F08D0020054346EAE0762C4337434F
:1008B0000A986305E40AA0EB08000022FD0A44EA56
:1008C00047540A3002D500200146E9E70105101916
:1008D0006941DDE9084500196941BDE8F04DA2E72D
:1008E00070B521F0004303430CD0C1F30A55002436
:1008F000D5EB040564EB0403D617AD1AB34102DB54
:100900000020014670BD201841EB025170BD00006F
:1009100030B5041E71F1000404DB4FF00044404286
:1009200064EB0101141E73F1000405DB1C464FF05B
:100930000043524263EB0403994208BF904230BD2A
:10094000064C074D06E0E06840F0010394E807001C
:1009500098471034AC42F6D3FFF72CFC503C00080B
:10096000703C00082DE9F04D00231A461B1A8A41FD
:1009700003DB00200146BDE8F08DC1F30A52C1F34C
:10098000130141F480154FF0000BD10702D100187C
:100990006D41521E0027044640F2FF11384601EB1C
:1009A000620A3E468046024600204FF48011FFF75F
:1009B000E1FEC2197141BB1846EB0100B4EB030C18
:1009C00075EB000C04D3E41A65EB000517460E46E0
:1009D000241908F101006D4180463428E3DDF9193E
:1009E00046EB0600091BA84103D24FF0FF32134625
:1009F00001E0002213461BEB070046EB0A51BDE85D
:100A0000F04DFFF710BF00BFFEE7704772B600BFA2
:100A1000FEE7000008B51E20264908706420012367
:100A20000A46EE210090244800F0ACFA112000F0B4
:100A30004BF848201F490870642001230A46EE2124
:100A400000901D4800F09EFA112000F03DF81B4B6D
:100A500003220021EF2000F00BFD1848007801046C
:100A60001648407801EB002014498978084414495D
:100A7000086058200F490870642001230A46EE21BF
:100A800000900D4800F07EFA112000F01DF80B4B8D
:100A900003220021EF2000F0EBFC0848007801045D
:100AA0000648407801EB002004498978084405494C
:100AB000086008BD00000020840000200100002024
:100AC000180000201C00002070B5044600F01EF93C
:100AD00006462546681C10B104480078054400BF4E
:100AE00000F014F9801BA842FAD370BD70000020FA
:100AF000F8B502460B460025002400200021E6E060
:100B0000012606FA01F51E6806EA0504AC4273D117
:100B10005E68012E08D05E68022E05D05E68112E38
:100B200002D05E68122E13D190684F000326BE409B
:100B3000B0434F00DE68BE403043906050680126ED
:100B40008E40B0431E79C6F300168E40304350608D
:100B5000D0684F000326BE40B0434F009E68BE40A1
:100B60003043D0605E68022E02D05E68122E13D130
:100B7000CF0802F1200656F827004E07F70E0F2681
:100B8000BE40B0434F07FF0E1E69BE403043CF0842
:100B900002F1200646F8270010684F000326BE40E9
:100BA000B0431E7906F003064F00BE40304310608C
:100BB0005E6806F08056B6F1805FA8D100BF0026BF
:100BC0000096454E366846F48046434F3E603E46AA
:100BD000366806F48046009600BF00BF3F4E8F087F
:100BE00056F827008E07370F0F26BE40B0433C4E05
:100BF000B24202D100262EE068E03A4EB24201D164
:100C0000012628E0384EB24201D1022623E0374EB9
:100C1000B24201D103261EE0354EB24201D1042674
:100C200019E0344EB24201D1052614E0324EB242F0
:100C300001D106260FE0314EB24201D107260AE06B
:100C40002F4EB24201D1082605E02E4EB24201D10C
:100C5000092600E00A268F073F0FBE4030431F4E93
:100C60008F0846F82700284E3068A0435E6806F4D7
:100C70008036B6F5803F00D12043234E3060361DCC
:100C80003068A0435E6806F40036B6F5003F00D138
:100C900020431D4E361D3060361D3068A0435E680F
:100CA00006F48016B6F5801F00D12043164E083694
:100CB0003060361D3068A0435E6806F40016B6F555
:100CC000001F00D12043104E0C363060491C102903
:100CD000FFF416AFF8BD0000443802400838014068
:100CE000000002400004024000080240000C0240E4
:100CF000001002400014024000180240001C024094
:100D00000020024000240240003C014001480068ED
:100D10007047000068000020024692F83D0020283D
:100D20001ED1242082F83D001068006820F00100E8
:100D3000136818601068406A20F010001368586249
:100D40001068406A0843136858621068006840F0F1
:100D5000010013681860202082F83D0000207047D1
:100D60000220FCE710B502460B46002192F83D0038
:100D700020281DD1242082F83D001068006820F052
:100D80000100146820601068406A81B221F00F01F0
:100D900041EA030081B2106841621068006840F0C7
:100DA000010014682060202082F83D00002010BD62
:100DB0000220FCE770B504460CB9012070BD94F820
:100DC0003D0028B9002084F83C00204600F00CFBD0
:100DD000242084F83D002068006820F0010021688C
:100DE00008602068006840F40040216808602068BE
:100DF000006820F400402168086000F01FFD0546EF
:100E00005C496068884206D85B48854201D201206F
:100E100007E0002005E05948854201D2012000E0AA
:100E20000020012800D1C9E75548B5FBF0F620683D
:100E3000406820F03F003043216848604D496068B9
:100E4000884201D8701C07E04FF4967070434FF44D
:100E50007A71B0FBF1F0401C2168096A21F03F0172
:100E600008432168086243496068884214D8681EB4
:100E700061684900B0FBF1F0401CC0F30B0004288E
:100E800001D204203DE0681E61684900B0FBF1F02A
:100E9000401CC0F30B0034E0A06838B9681E6168DC
:100EA00001EB4101B0FBF1F0401C0AE0681E6168F3
:100EB00001EBC10202EB0111B0FBF1F0401C40F468
:100EC0008040C0F30B0008B901201AE0A06848B9BF
:100ED000681E616801EB4101B0FBF1F0401CC0F3FA
:100EE0000B000CE0681E616801EBC10202EB01110E
:100EF000B0FBF1F0401CC0F30B0040F4804040F424
:100F000000402168C9694CF6FF729143084321688B
:100F1000C861D4E9070108432168096821F0C001CC
:100F2000084321680860D4E90310084321688968F0
:100F300048F2FF329143084321688860D4E90501F3
:100F400008432168C96821F0FF0108432168C8608F
:100F50002068006840F001002168086000202064DB
:100F6000202084F83D000020206384F83E0000BF6C
:100F700024E70000A086010080841E0000093D00D7
:100F800040420F002DE9F8430446894616461F46A5
:100F9000DDF82080FFF7BAFE054694F83D002028D2
:100FA0007ED11923012251492046009501F0F6F81F
:100FB00010B10220BDE8F88300BF94F83C0001287E
:100FC00001D10220F6E7012084F83C0000BF206830
:100FD000006800F0010028B92068006840F00100B6
:100FE000216808602068006820F4006021680860BB
:100FF000212084F83D00102084F83E000020206469
:1010000066626785608D20853948E0622B464246DE
:101010004946204600F084FF08B10120CAE700BF1E
:10102000002000902068406900902068806900904E
:1010300000BF00BF44E02A464146204601F093F934
:1010400050B1206C042805D12068006840F400707D
:10105000216808600120ADE7606A007821680861B6
:10106000606A401C6062608D401E6085208D401E5D
:10107000208520684069C0F3800070B1208D60B188
:10108000606A007821680861606A401C6062608D57
:10109000401E6085208D401E20852A46414600E086
:1010A00022E0204601F04CF850B1206C042805D114
:1010B0002068006840F4007021680860012079E72A
:1010C000208D0028B7D12068006840F400702168A6
:1010D0000860202084F83D00002084F83E0000BF16
:1010E00084F83C0000BF65E7022063E702001000BF
:1010F0000000FFFF2DE9FC5F04460F46904699462D
:10110000DDE90CAB0E9EFFF701FE054694F83D00AD
:10111000202870D119230122B0492046009501F002
:101120003DF810B10220BDE8FC9F00BF94F83C00E0
:10113000012801D10220F6E7012084F83C0000BF1D
:101140002068006800F0010028B92068006840F0BD
:101150000100216808602068006820F400602168B0
:101160000860222084F83D00402084F83E000020E2
:101170002064C4F824A0A4F82AB0608D2085984883
:10118000E0624B46424639462046CDE9006500F014
:1011900027FF08B10120C6E7208D88B900BF0020D5
:1011A000019020684069019020688069019000BF2B
:1011B00000BF2068006840F400702168086040E0CB
:1011C000208D012818D12068006820F480602168F3
:1011D000086000BF002001902068406901902068ED
:1011E0008069019000BF00BF2068006840F4007073
:1011F0002168086025E0EFE0208D022816D12068E4
:10120000006820F48060216808602068006840F46D
:1012100000602168086000BF0020019020684069DC
:10122000019020688069019000BF0AE000BF0020A3
:10123000019020684069019020688069019000BF9A
:1012400000BFBAE0208D03287ED8208D012815D15B
:101250002A463146204601F046F808B1012062E7EF
:1012600020680069616A0870606A401C6062208DB5
:10127000401E2085608D401E60859EE0208D0228E6
:101280002AD13346002257492046009500F086FFB8
:1012900008B1012047E72068006840F40070216829
:1012A000086020680069616A0870606A401C6062BA
:1012B000208D401E2085608D401E6085206800695D
:1012C000616A0870606A401C6062208D401E208543
:1012D000608D401E608570E0334600224149204603
:1012E000009500F05BFF08B101201CE72068006852
:1012F00020F480602168086020680069616A0870D5
:10130000606A401C6062208D401E2085608D401EFA
:1013100060853346002233492046009500F03EFFA9
:1013200008B10120FFE62068006840F400702168E1
:10133000086020680069616A0870606A401C606229
:10134000208D401E208500E010E0608D401E6085ED
:1013500020680069616A0870606A401C6062208DC4
:10136000401E2085608D401E608526E02A4631465D
:10137000204600F0B8FF08B10120D4E620680069DB
:10138000616A0870606A401C6062208D401E208582
:10139000608D401E608520684069C0F3800060B1A8
:1013A00020680069616A0870606A401C6062208D74
:1013B000401E2085608D401E6085208D00287FF4B2
:1013C00041AF202084F83D00002084F83E0000BF9B
:1013D00084F83C0000BFA6E60220A4E6020010004C
:1013E0000000FFFF0400010010B586B00446142180
:1013F00001A8FEF760FF1B492068884230D100BF7A
:10140000002000901848006840F00200164908606B
:101410000846006800F00200009000BF00BF4FF4D3
:10142000C0700190122002900120039003200490CC
:101430000420059001A90D48FFF75AFB00BF0020CA
:10144000009009481030006840F40010064910313F
:1014500008600846006800F40010009000BF00BF5C
:1014600006B010BD00540040303802400004024075
:10147000FEB504460D4617461E46C82001232A46DF
:101480002146CDE9006702900148FFF733FEFEBD1B
:101490008400002003480068034909780844014992
:1014A00008607047680000207000002010B50D48EB
:1014B000006840F400700B4908600846006840F47A
:1014C000806008600846006840F48070086003206F
:1014D00000F092F8002000F007F800F02BF8002050
:1014E00010BD0000003C024070B504460E48007874
:1014F0004FF47A71B1FBF0F00C490968B1FBF0F5DB
:10150000284600F0D1FC08B1012070BD102C07D294
:1015100000222146501E00F031F80548046001E029
:101520000120F2E70020F0E77000002074000020A6
:101530006C00002008B500BF002000900E48006835
:1015400040F480400C4908600846006800F4804080
:10155000009000BF00BF00BF00200090081F00687F
:1015600040F08050091F08600846006800F0805075
:10157000009000BF00BF08BD443802402DE9F05F75
:1015800080460D461646002701F0A0FA0746394668
:101590002A46334601F00700C0F1070ABAF1040FEA
:1015A00002D94FF0040A01E0C0F1070AD14600F168
:1015B000040ABAF1070F02D24FF0000A01E0A0F1CD
:1015C000030AD4464FF0010A0AFA09FAAAF1010AFD
:1015D0000AEA020A0AFA0CFA4FF0010B0BFA0CFBAA
:1015E000ABF1010B0BEA030B4AEA0B042146404620
:1015F00001F074FABDE8F09F00BF00F00702064B4F
:1016000019684FF6FF031940044B0B4343EA0221CC
:10161000014B196000BF70470CED00E00000FA05B7
:1016200038B5002400BF002000901D48006840F03D
:1016300080501B4908600846006800F08050009008
:1016400000BF00BF012017490864FFF75FFB044695
:1016500007E0FFF75BFB001BB0F57A7F01D90320A1
:1016600038BD1148406800F48030B0F5803FF0D1BB
:1016700001200C494864FFF749FB044607E0FFF7E7
:1016800045FB001BB0F57A7F01D90320E8E7064847
:10169000406800F40030B0F5003FF0D10020DFE7F3
:1016A0004038024000000E420070004070B5044611
:1016B0000D460CB9012070BD5848006800F00F00BD
:1016C000A84209D255490D700846006800F00F0085
:1016D000A84201D00120EEE7207800F002000228A5
:1016E0001DD1207800F00400042805D14C48006882
:1016F00040F4E0504A490860207800F008000828CB
:1017000005D14748006840F46040454908604448B6
:10171000006820F0F000A168084341490860207883
:1017200000F00100A8B36068012807D13C480838E0
:101730000068C0F34040B8B90120BCE760680228E7
:1017400002D06068032807D1354808380068C0F324
:10175000406048B90120AEE7314808380068C0F35E
:10176000400008B90120A6E72D48006820F00300DA
:10177000616808432A490860FFF7C8FA064609E08D
:10178000FFF7C4FA801B41F28831884202D9032056
:1017900091E707E02248006800F00C006168B0EBB8
:1017A000810FEDD11D48006800F00F00A84209D953
:1017B0001A490D700846006800F00F00A84201D0D9
:1017C000012078E7207800F00400042807D11448AD
:1017D000006820F4E050E16808431149086020786F
:1017E00000F00800082808D10D48006820F4604087
:1017F000216940EAC1000A49086000F02FF8084951
:101800000968C1F30311074A515CC84006490860E2
:1018100006480068FFF768FE00204CE7003C0240E5
:1018200008380240A23B0008740000206C00002031
:1018300001480068704700007400002000B5FFF701
:10184000F7FF04490968C1F38221034A515CC8408B
:1018500000BD000008380240B23B00082DE9F04707
:10186000002400250026A1462548006800F00C0051
:1018700020B1042805D008283AD105E0DFF884908B
:1018800039E0DFF8849036E01D48001F006800F062
:101890003F041B48001F006800F4800078B11A481C
:1018A0001749091F0968C1F38811A0FB017001469F
:1018B000224600233846FEF795FC05460EE0114807
:1018C0000F49091F0968C1F38811A0FB0170014687
:1018D000224600233846FEF785FC05460848001FCF
:1018E0000068C0F30140401C4600B5FBF6F902E079
:1018F000DFF8109000BF00BF4846BDE8F087000049
:10190000083802400024F40000366E01F8B50446A1
:101910000CB90120F8BD207800F00100002874D037
:10192000F948006800F00C0004280DD0F648006863
:1019300000F00C00082813D1F348001F006800F4E1
:101940008000B0F5800F0BD1EF4808380068C0F375
:101950004040002859D06068002856D10120D9E7BE
:1019600000BF6068B0F5803F08D1E74808380068DC
:1019700040F48030E449083908601EE06068B0F542
:10198000A02F0DD1E0480838006840F48020DE49DF
:10199000083908600846006840F4803008600CE0B0
:1019A000D9480838006820F48030D74908390860E1
:1019B0000846006820F48020086000BF606890B18D
:1019C000FFF7A4F9054606E0FFF7A0F9401B6428DD
:1019D00001D903209EE7CC4808380068C0F3404096
:1019E0000028F1D011E0FFF791F9054606E0FFF776
:1019F0008DF9401B642801D903208BE7C2480838C1
:101A00000068C0F340400028F1D1207800F00200C7
:101A100002285FD1BC48006800F00C0058B1BA48F9
:101A2000006800F00C0008281CD1B748001F0068AF
:101A300000F48000B0B9B44808380068C0F3400032
:101A400020B1E068012801D0012063E7AE480838E2
:101A5000006820F0F800216940EAC100AA4908396D
:101A6000086037E0E06800B30120A8490860FFF78C
:101A70004DF9054606E0FFF749F9401B022801D958
:101A8000032047E7A04808380068C0F3400000285A
:101A9000F1D09D480838006820F0F800216940EA3C
:101AA000C10099490839086014E00020974908608E
:101AB000FFF72CF9054606E0FFF728F9401B02283E
:101AC00001D9032026E7904808380068C0F3400099
:101AD0000028F1D1207800F0080008282CD1606996
:101AE000A8B101208A490860FFF710F9054606E011
:101AF000FFF70CF9401B022801D903200AE78248AE
:101B00006C300068C0F340000028F1D014E00020E1
:101B10007F490860FFF7FAF8054606E0FFF7F6F898
:101B2000401B022801D90320F4E677486C30006896
:101B3000C0F340000028F1D1207800F00400042810
:101B400070D1002770483830006800F0805090B99C
:101B500000BF002000906C483830006840F0805092
:101B60006949383108600846006800F080500090EC
:101B700000BF00BF01276748006800F48070B0B95B
:101B80006448006840F4807062490860FFF7BEF85E
:101B9000054606E0FFF7BAF8401B022801D90320EA
:101BA000B8E65C48006800F480700028F2D000BFFE
:101BB000A068012808D154486830006840F001004E
:101BC0005149683108601DE0A06805280DD14E48D4
:101BD0006830006840F004004B49683108600846EE
:101BE000006840F0010008600CE047486830006879
:101BF00020F001004449683108600846006820F080
:101C00000400086000BFA068A8B1FFF77FF8054690
:101C100009E0FFF77BF8401B41F28831884202D986
:101C2000032077E626E0384868300068C0F34000BB
:101C30000028EED013E0FFF769F8054608E0FFF74B
:101C400065F8401B41F28831884201D9032061E6E2
:101C50002D4868300068C0F340000028EFD1012F04
:101C600007D129483830006820F0805026493831A3
:101C7000086000BFA069002845D02348006800F034
:101C80000C0008285DD0A069022845D100201F491A
:101C90000866FFF73BF8054606E0FFF737F8401BFC
:101CA000022801D9032035E6174808380068C0F338
:101CB00040600028F1D1D4E907010843616A40EA95
:101CC00081110122A06AC2EB500041EA00412C20A0
:101CD000005D41EA00600C49091F086001200B49C2
:101CE0000866FFF713F8054606E0FFF70FF8401BFC
:101CF000022801D903200DE6034808380068C0F324
:101D000040600028F1D03FE0083802400000474220
:101D1000800E47420070004000201C490866FEF714
:101D2000F5FF054606E0FEF7F1FF401B022801D94A
:101D30000320EFE516480068C0F340600028F2D1A8
:101D400022E0A069012800D1E4E51148001D0668E1
:101D500006F48001E069814214D106F03F01206A57
:101D600081420FD147F6C0703040616A884209D184
:101D700006F44031A06A814204D106F07061E06A45
:101D8000814201D00120C5E50020C3E500004742A3
:101D90000038024010B504460CB9012010BD606A3D
:101DA00000B900BF0021A16294F8510028B90020B9
:101DB00084F85000204600F033F8022084F85100E7
:101DC0002068006820F0400021680860D4E9010123
:101DD0000843E16808432169084361690843218B8E
:101DE00001F400710843E1690843216A0843A16ACC
:101DF0000843216808600421A06901EA1040616A73
:101E00000843216848602068C06920F400602168A8
:101E1000C86100206065012084F851000020BDE702
:101E200010B586B00446142101A8FEF744FA1B49F8
:101E3000206888422FD100BF002000901848006819
:101E400040F40050164908600846006800F400504D
:101E5000009000BF00BF00BF002000901048143861
:101E6000006840F010000E49143908600846006808
:101E700000F01000009000BF00BF6420019002201D
:101E8000029000200390032004900520059001A9F2
:101E90000448FEF72DFE06B010BD000000340140DE
:101EA000443802400010024070B504462546681EC2
:101EB000B0F1807F01D301200FE0681E4FF0E021D8
:101EC00048610F214FF0FF3000F008FE00204FF076
:101ED000E021886107200861002070BD00BFFEE797
:101EE000014608684069C0F38020B0B16FF480609B
:101EF0000A68506100200863202081F83D0000201E
:101F000081F83E00086C40F00400086400BF002027
:101F100081F83C0000BF012070470020FCE7000072
:101F20002DE9F84304460D4617469846E66A082E02
:101F300004D0012E02D016F5803F06D1206800683B
:101F400040F480702168086008E0206B122805D1F9
:101F50002068006840F48070216808603B460022D9
:101F60004FF001112046CDF8008000F017F960B164
:101F70002068006800F48070B0F5807F02D14FF4D3
:101F8000007020640320BDE8F8832069B0F5804F1D
:101F900004D105F0FE002168086112E005F44070EC
:101FA000F02141EAE0102168086143463A460B49B6
:101FB000204600F036F908B10120E4E7E8B22168D4
:101FC000086143463A460549891F204600F029F931
:101FD00008B10120D7E70020D5E700000800010084
:101FE0002DE9F84304460F4615469946DDE9088673
:101FF0002068006840F480602168086020680068FC
:1020000040F4807021680860434600224FF00111BF
:102010002046009600F0C2F860B12068006800F425
:102020008070B0F5807F02D14FF4007020640320EF
:10203000BDE8F88307F0FE00216808613346424698
:102040003E49204600F0EDF808B10120F0E700BF5E
:10205000002000902068406900902068806900900E
:1020600000BF00BF32464146204600F07CF950B127
:10207000206C042805D12068006840F400702168B5
:1020800008600120D4E7B9F1010F03D1E8B221685B
:10209000086117E0C5F30720216808613246414610
:1020A000204600F060F950B1206C042805D120686A
:1020B000006840F40070216808600120B8E7E8B2C9
:1020C0002168086132464146204600F04CF950B183
:1020D000206C042805D12068006840F40070216855
:1020E00008600120A4E72068006840F4807021683F
:1020F0000860434600224FF001112046009600F090
:102100004DF858B12068006800F48070B0F5807F09
:1021100002D14FF400702064032089E7F8B240F048
:10212000010021680861334642460449204600F018
:1021300078F808B101207BE7002079E70200010070
:1021400070B504460D46164620E02046FFF7C8FE4F
:1021500008B1012070BD681CC0B1FEF7D7FD801B1F
:10216000A84200D895B900202063202084F83D00C3
:10217000002084F83E00206C40F02000206400BF66
:10218000002084F83C0000BF0120E3E7206840699C
:10219000C0F380000028D8D00020DBE72DE9F04113
:1021A00004460D4617461E46DDF818801CE0701CDC
:1021B000D0B1FEF7ABFDA0EB0800B04200D89EB94D
:1021C00000202063202084F83D00002084F83E0099
:1021D000206C40F02000206400BF002084F83C0008
:1021E00000BF0120BDE8F081C5F3074001280AD1F6
:1021F00020684069A9B20840A9B2884201D10120F3
:102200000BE0002009E020688069A9B20840A9B26B
:10221000884201D1012000E00020B842C7D0002050
:10222000E0E72DE9F04104460D4616461F463DE025
:1022300020684069C0F38020E8B12068006840F45D
:102240000070216808606FF4806021684861002098
:102250002063202084F83D00002084F83E00206C9C
:1022600040F00400206400BF002084F83C0000BF60
:102270000120BDE8F081701CC0B1FEF747FDC01B16
:10228000B04200D896B900202063202084F83D0099
:10229000002084F83E00206C40F02000206400BF45
:1022A000002084F83C0000BF0120E2E7C5F30740AE
:1022B00001280AD120684069A9B20840A9B2884221
:1022C00001D101200BE0002009E020688069A9B25B
:1022D0000840A9B2884201D1012000E00020002876
:1022E000A6D00020C5E770B504460D46164632E07C
:1022F00020684069C0F30010A0B16FF010002168A1
:10230000486100202063202084F83D00002084F8EC
:102310003E00206C206400BF002084F83C0000BF19
:10232000012070BDFEF7F2FC801BA84200D895B9D1
:1023300000202063202084F83D00002084F83E0027
:10234000206C40F02000206400BF002084F83C0096
:1023500000BF0120E5E720684069C0F38010002835
:10236000C6D00020DDE770B504460D46164620E0D5
:102370002046FFF7B5FD08B1012070BD681CC0B153
:10238000FEF7C4FC801BA84200D895B9002020634A
:10239000202084F83D00002084F83E00206C40F0AE
:1023A0002000206400BF002084F83C0000BF012012
:1023B000E3E720684069C0F3C0100028D8D00020AF
:1023C000DBE700002DE9F0412DED0A8BCC480088B9
:1023D000CC490968A1EB0020CB490860084690ED84
:1023E000000AF8EEC00AC948008800EE100AB8EEEC
:1023F000400A60EE800A9FEDC61A80EE810ADFED8A
:10240000C50A30EE200ABDEEC00AC34880ED000ABE
:1024100008460068FEF7F8F841EC1A0BBF48008840
:10242000FEF703F953EC1A2BFDF7F7FF9FEDBC0BFA
:1024300053EC102BFEF763F8FEF739F9BA4A12880D
:102440004FF48033A2FB032380185941B74A03C2DB
:10245000AD480068FEF7D8F841EC1A0BB448008884
:10246000FEF7E3F853EC1A2BFDF7D7FF9FEDB10B06
:1024700053EC102BFEF743F8FEF719F9AF4A128818
:102480004FF40043A2FB0332C0185141AC4A03C2CF
:102490000020AC4908600021AB4A11605160AB4A92
:1024A000116051609C480068B0F5FA6F0ADD0020A9
:1024B000A44908600021A44A11605160A34A116038
:1024C00051608EE094480068B0F5FA6F7DDA8E486E
:1024D00090ED000AB8EEC00ABDEEC00A9C4880ED3F
:1024E000000A00684043C11704464FF00042002331
:1024F000FDF7A9FE9349086087480068A0F5FA60D7
:1025000000EE100AB8EEC00A20EE000AF1EE040A4E
:1025100020EE200AF0EE000A80EE201A11EE104A9A
:102520002046FEF7A3F8884A03C27B480068A0F55E
:10253000FA6000EE100AB8EEC00A20EE000AF1EED2
:10254000040A20EE200AF1EE000A80EE201A11EEB5
:10255000104A2046FEF78AF87C4A03C26E4800689B
:102560007C4988423DDA784903C9FEF737F800EE26
:10257000100A6948006800F2DC5000EE900AF8EE9C
:10258000E00A60EEA00AB1EE0C1A01EE200A10EE8D
:10259000104A2046FEF76AF86B4A03C26B4903C92A
:1025A000FEF71CF800EE100A5B48006800F2DC50F1
:1025B00000EE900AF8EEE00A60EEA00AB2EE061A0B
:1025C00060EE810AB0EE001A00E00AE0C0EE811A67
:1025D00030EE210A10EE104A2046FEF747F85B4A1B
:1025E00003C24D48006857490968401A4A490860C3
:1025F0004E48D0E900205449D1E90031D21A60EBAD
:1026000001004A49C1E900204D48D0E900104F4A75
:10261000D2E90032C91A60EB0200494AC2E900104F
:10262000424903C9FEF70EF841EC1A0B4A4800680C
:1026300000254349D1E90041A0FB042705FB0474B0
:1026400001FB00411046FDF7FDFF9FED440B53ECED
:10265000102BFDF754FF53EC1A2BFDF7D8FE9FED1E
:10266000410B53EC102BFDF74AFFFEF758F83F499A
:10267000086029480068FDF7C7FF9FED3D0B53EC4C
:10268000102BFDF73CFFFEF74AF83B49086008466F
:10269000D0ED000A9FED391A9FED390A00EE810A4C
:1026A000384880ED000A31480068FEF725F89FEDB4
:1026B000360B53EC102BFDF722FF41EC1A0B9FED6C
:1026C000341BB0EE4A0AF0EE6A0A00F01DFAB0EED2
:1026D000409AF0EE609A9FED300B53EC102B51ECCA
:1026E000190BFDF797FE9FED2E0B53EC102BFDF70A
:1026F00094FE2D4A03C2BDEC0A8BBDE8F0810000B8
:10270000140000201C0000202000002016000020E3
:102710000000004B0000FA442400002012000020BA
:1027200000000000000060400E000020300000208B
:102730001000002000000000000070400C0000208D
:10274000380000202C00002040000020480000201D
:102750002800002024FAFFFF1800002000000000DD
:1027600000004041000000000000E0405000002058
:102770000000000000005940040000206666E63FAB
:10278000000000420800002000000000D0BCF8401B
:1027900000000020965BC83F000000000000F03FF2
:1027A0000000000040A5E5405800002008B51E20AC
:1027B0002D490870642001230A46EE2100902B4821
:1027C000FEF7E0FB0A20FEF77FF9294B0222A22147
:1027D000EF20FEF74DFE26484178007801EB0020FF
:1027E00024490880224B0222A421EF20FEF740FE5C
:1027F0001F484178007801EB00201F4908801C4BDE
:102800000222A621EF20FEF733FE19484178007816
:1028100001EB002019490880154B0222A821EF2066
:10282000FEF726FE12484178007801EB002014499B
:1028300008800F4B0222AA21EF20FEF719FE0C4858
:102840004178007801EB00200E490880084B0222F5
:10285000AC21EF20FEF70CFE05484178007801EB33
:1028600000200949088008BD0000002084000020E5
:10287000010000200C0000200E00002010000020AD
:1028800012000020140000201600002008B500BF30
:10289000002000901D48006840F010001B490860AF
:1028A0000846006800F01000009000BF00BF00BFA5
:1028B000002000900846006840F08000086008464C
:1028C000006800F08000009000BF00BF00BF002043
:1028D00000900846006840F0010008600846006863
:1028E00000F00100009000BF00BF00BF002000907A
:1028F0000846006840F0020008600846006800F0E2
:102900000200009000BF00BF08BD00003038024048
:1029100010B512481249086012484860002110485A
:102920008160C1604FF4804101610021416181619A
:10293000C1610162FEF73EFA08B1FEF767F80021B7
:102940000748FEF7E9F908B1FEF760F800210448EE
:10295000FEF708FA08B1FEF759F810BD0054004020
:1029600084000020A086010010B50E480E490860C2
:102970004FF48270486000210B488160C1600161A2
:1029800041614FF4007181613021C1610021016218
:10299000416281620A21C162FFF7FCF908B1FEF7CA
:1029A00035F810BD00340140D800002000BFFEE71C
:1029B00000BFFEE77047704710B5FEF76BFD10BD16
:1029C00000B593B0302107A8FDF775FC142102A8CB
:1029D000FDF771FC00BF002001902648006840F020
:1029E0008050244908600846006800F0805001903B
:1029F00000BF00BF00BF002001901F48006840F4E6
:102A000040401D4908600846006800F440400190BD
:102A100000BF00BF012007900004089002200D9025
:102A200041050E910C210F91B421109102211191B9
:102A30000421129107A8FEF769FF08B1FDF7E6FF30
:102A4000FEF7EEFD08B1FDF7E1FF0F200290022036
:102A50000390002004904FF4A05005904FF4805054
:102A60000690052102A8FEF721FE08B1FDF7CEFF72
:102A700013B000BD403802400070004005480068B7
:102A800040F47000034908604FF00060014980394C
:102A90000860704788ED00E000BFFEE703B40198CE
:102AA0004100009850EAC12018BF04204A0D18BF09
:102AB00040F0010040F2FF72B2EB515F08BF40F0FE
:102AC0000200012808BF052002B0704702480068D4
:102AD000C0F30220704700000CED00E010B50028A4
:102AE00004DB0A07130E054A135406E00A07140E06
:102AF000034A00F00F031B1FD45410BD00E400E094
:102B000018ED00E0000000002DE9F04D2DED040B64
:102B10002DED0E8B96B0DDE92550279CDDF890A0B9
:102B200025F0004624F00048BAF1000F14BF01213F
:102B3000002101EB4502FC4953184A1093422AD365
:102B4000002814BF0123002303EB44030B44F7497F
:102B50008B4220D358EA00019FEDF59B76D0DFF839
:102B6000D8B35D4503D1BAF1000F05D188E0BAF1C1
:102B7000000F08BF002100D0012101EB450111F534
:102B8000001F08D8002814BF0121002101EB4401D7
:102B900011F5001F0BD99DED261B9DED240B16B0E2
:102BA000BDEC0E8B04B0BDE8F04D00F069BE00270F
:102BB000002DBCBFE149884521DAE1498845A8BF1D
:102BC00002271CDAC3451ADCDE4901EB285114291F
:102BD00008DDC1F1340220FA02F101FA02F2824268
:102BE0000DD108E058B9C1F1140228FA02F101FA36
:102BF00002F2424503D101F00101C1F1020756EA98
:102C00000A0124D1002C22DA002D18BF022F01D096
:102C1000012F0AD0022000F07FFE16B0BDEC0E8B13
:102C200004B0BDE8F04D00F013BE022000F074FEC9
:102C300000F00EFE51EC100B81F0004141EC100B46
:102C400016B0BDEC0E8B04B0BDE8F08D18E09FED22
:102C5000BEAB9FEDBF8B002871D1B848804522D113
:102C600005F1804010F5801008BFBAF1000F07D0C1
:102C7000B3450ADC002CA8BF9DED260BE0DA0DE081
:102C8000B0EE490AF0EE690ADAE7002C06DA9DEDAB
:102C9000260B51EC100B81F000416FE0AE487844F8
:102CA00090ED000BCCE7D8454DD1002C48DA2EB181
:102CB00086423AD1BAF1000F42D126E0BAF1000FB4
:102CC00013D0022000F028FE00F0F6FD8DED020B7F
:102CD0009DED240B8DED000B10EE900A039961F32E
:102CE0001E0003909DED020BAAE78DED02AB9DED5A
:102CF000240B1AEE901A10EE900A8DED000B61F382
:102D00001E0003909DED020B9AE78DED028B9DED69
:102D1000240B18EE901A10EE900A8DED000B61F363
:102D20001E0003909DED020B8AE709DA9DED240B4E
:102D300051EC190B53EC102BFDF7E1FB1EE020E0EA
:102D40009DED240B7CE786421BDAB4F1804F0DD059
:102D5000A4F10050B0F1FF5013D1002D11DB9DED17
:102D6000240B51EC100B00F0E5FE07E09DED240B69
:102D700053EC102B51EC100B00F0C2BC41EC100BCB
:102D80005EE79DED240B51EC100B00F0CBFDBAF18A
:102D9000000FCDE90E0142D19FED710B46B3A6F1B4
:102DA000E040B0F17F600CD05E4538D1002D00DAF4
:102DB000A7B3022F0CBF01204FF0FF30FDF724FC1A
:102DC000DCE7002D01DD002C0DDA002D01DD002CEB
:102DD0001FDB002D16DA002C14DB012F08BF9FED3E
:102DE000620B3FF42DAFB0EE4A0AF0EE6A0A27E715
:102DF000022F18BF002D0CD0012F0AD1002DFFF695
:102E00001FAF06E0002DB8BF002C08DA012F3FF4F9
:102E100017AFB0EE480AF0EE680A11E71BE0012098
:102E200000EBE57050EA070115D0791EB0EE498A33
:102E3000F0EE698A084308BF9FED4D8B4E48002590
:102E4000804570DD4D494E48884514DDB0420DDBAC
:102E5000002C19DB2FE0012000F05EFD16B0BDEC68
:102E60000E8B04B0BDE8F04D00F016BDB34502DC9A
:102E7000002C09DC1FE0864202DA002C1BDA03E09A
:102E80005E452BDD002C16DD022000F045FD00F034
:102E900013FD8DED020B53EC1A2B51EC180BFDF7C3
:102EA000BCFACDE900010399019861F31E0003907B
:102EB0009DED020BC4E6022000F02EFD00F00CFD9B
:102EC00010EE901A18EE900A8DED020B8DED008B2E
:102ED00061F31E0003909DED020BB1E69DED0E0B1C
:102EE00053EC192B51EC100BFDF791FA9FED260BCB
:102EF000CDE9080153EC102B9DED080B51EC100BA4
:102F0000FDF78BFA9FED221B53EC112BFDF782FA94
:102F10009DED081B53EC112BFDF77FFA9FED1E1B57
:102F200053EC112B3CE08CE0FFFF1F00FFFF0F0074
:102F3000000000000000F03F0000F03F0000F07FC4
:102F40000000404301FCFFFF000000000000F07F94
:102F50000000000000000000A60F000000000000BC
:102F60000000000000000080000000000000F0FFF2
:102F7000000000000000F0BF0000E0410000F0434E
:102F8000FFFFEF3F00000000000000000000D03F06
:102F9000555555555555D53F000000000000E03F00
:102FA000FDF738FA9DED080B41EC1A0B53EC102B92
:102FB00051EC100BFDF731FA53EC1A2BFDF72DFAFB
:102FC00041EC1A0B9FEDFE0B53EC102B9DED080B03
:102FD00051EC100BFDF721FA41EC1B0B9FEDFA0BA6
:102FE00051EC1A0B53EC102BFDF717FA41EC1A0BAE
:102FF0009FEDF70B53EC102B9DED080B51EC100BD4
:10300000FDF70BFA53EC1A2BFDF701FA41EC1A0B02
:1030100051EC1B0B53EC1A2BFDF758F90690CDE938
:1030200006519DED060B53EC1B2B51EC100BFDF7DD
:10303000EEF953EC1A2BFDF7EDF941EC100B00F013
:10304000A1B90020B6F5801F0EDA9FEDE30B53EC1B
:10305000102B9DED0E0B51EC100BFDF7DEF9CDE9B9
:103060000E016FF034000E4600EB2650A0F2FF3741
:10307000C6F31300DA4940F07F6646F040568842B6
:10308000D8BF002408DDD7498142C8BF012403DC32
:103090000024A6F580167F1CD348784400EBC400BA
:1030A0000F9690ED00CB9DED0E0B53EC1C2B51ECCD
:1030B000100BFDF7ACF99DED0E0B41EC1B0B53EC27
:1030C0001C2B51EC100BFDF701F941EC100B51ECEE
:1030D000190B53EC102BFDF712FA41EC1D0B51ECC0
:1030E0001B0B53EC1D2BFDF798F941EC1A0BBF4855
:1030F0008DED10AB7844109590ED000B4FF0005023
:1031000040EA660000EB84408DED080B00F50020DE
:1031100009909DED080B53EC1C2B51EC100BFDF7A7
:1031200076F99DED0E1B53EC112BFDF773F941EC75
:10313000100B53EC102B9DED100B51EC100BFDF709
:103140006CF99DED080B41EC1C0B53EC102B9DED25
:10315000100B51EC100BFDF760F953EC1B2BFDF736
:1031600059F953EC1C2BFDF752F953EC1D2BFDF7CD
:1031700054F941EC1C0B53EC1A2B51EC1A0BFDF7D4
:103180004CF941EC1B0B9A480621B0EE4B0AF0EECD
:103190006B0A784400F0E0FAB0EE401AF0EE601AE4
:1031A000B0EE41DAF0EE61DA53EC1B2B51EC1B0B65
:1031B000FDF733F953EC1D2BFDF72FF99DED100BA7
:1031C00041EC1B0B53EC1A2B51EC100BFDF77EF866
:1031D00053EC1C2BFDF721F953EC1B2BFDF776F874
:1031E0009DED100B41EC1B0B53EC102B51EC100B15
:1031F000FDF713F941EC1D0B9FED7FEB53EC1E2BFC
:10320000FDF764F853EC1B2BFDF760F80890CDE94F
:1032100008519DED080B53EC1E2B51EC100BFDF7E4
:10322000F6F853EC1D2BFDF7F2F853EC1B2BFDF7D2
:10323000F1F89DED080B41EC1D0B53EC102B9DEDAF
:10324000100B51EC100BFDF7E8F841EC1B0B53ECA5
:103250001A2B51EC1D0BFDF7E0F89DED080B41EC2E
:103260001A0B53EC102B51EC1C0BFDF7D6F853EC5A
:103270001A2BFDF72BF841EC1A0B51EC1B0B53ECFE
:103280001A2BFDF723F80C90CDE90C519DED0C0B9A
:1032900053EC1B2B51EC100BFDF7B9F853EC1A2B28
:1032A000FDF7B8F841EC1B0B9FED550B53EC102BC1
:1032B0009DED0C0B51EC100BFDF7AFF841EC1A0B28
:1032C0009FED510B51EC1B0B53EC102BFDF7A5F8A8
:1032D00041EC1B0B9FED4E0B53EC102B9DED0C0B9B
:1032E00051EC100BFDF799F853EC1B2BFCF7EEFF9C
:1032F00041EC100B4848784400EBC40090ED001BF3
:1033000051EC100B53EC112BFCF7E0FF41EC1B0BC5
:103310003846FDF779F9CDE9080153EC1B2B51EC48
:103320001A0BFCF7D3FF41EC100B3C48784400EB40
:10333000C40090ED00CB51EC100B53EC1C2BFCF7B0
:10334000C5FF9DED081B53EC112BFCF7BFFF06904A
:10335000CDE906519DED080B53EC102B9DED060BAE
:1033600051EC100BFDF753F853EC1C2BFDF74FF805
:1033700053EC1A2BFDF74BF853EC1B2BFDF74AF8D7
:1033800041EC100B9DED261B53EC102B8DED001B1B
:1033900000959DED260B51EC100BFDF73EF89DEDD1
:1033A000000B41EC1A0B53EC102B9DED260B51EC4E
:1033B000100BFDF72CF89DED061B53EC112B2FE0A5
:1033C000000000604715F73FFE822B654715F73F69
:1033D00044DF5DF80BAE543E0000000000004043A7
:1033E0008E9803007AB60B00220B0000500B0000F1
:1033F0005A0A000000000000000000000000084021
:10340000000000E009C7EE3FFD033ADC09C7EE3FCC
:10341000F5015B14E02F3EBEE6080000A0080000A6
:10342000FCF7FBFF53EC1A2BFCF750FF9DED060B4E
:1034300041EC1A0B53EC102B9DED000B51EC100BD3
:10344000FCF7EBFFCDE90C019DED0C0B51EC1A0BD9
:1034500053EC102BFCF73AFFCDE902010C46AA49C8
:103460008C422FDB611A084318D19DED0C0B53ECF5
:10347000102B9DED020B51EC100BFCF7C8FF41EC3B
:103480001B0B9FEDA30B51EC1A0B53EC102BFCF70D
:103490001DFF53EC1B2BFDF73BFA2DD2022000F051
:1034A0003BFA00F009FA10EE901A18EE900A8DED32
:1034B000020B8DED008B61F31E0003909DED020B5E
:1034C000FFF7BEBB944A24F00041914214D39349C4
:1034D000214408437FF4EFAC9DED0C0B53EC102B13
:1034E0009DED020B51EC100BFCF791FF53EC1A2BE6
:1034F000FDF70EFA7FF6DFAC24F000408849894AD8
:10350000002601EB205182422BDA481C4FF4801137
:1035100021FA00F02044844AC0F30A517A44A1F20F
:10352000FF3192ED000B814A8DED080BCA4020EA75
:103530000202C0F3130040F48010C1F1140120FA1C
:1035400001F60992002CB8BF76429DED080B53ECB2
:10355000102B9DED0C0B51EC100BFCF758FFCDE937
:103560000C019DED0C0B51EC1A0B53EC102BFCF7DE
:10357000ADFE9FED6F0B0890CDE9085153EC102B79
:103580009DED080B51EC100BFCF747FF41EC1B0BBA
:103590009FED690B53EC102B9DED080B51EC100BBC
:1035A000FCF73BFF9DED0C0B41EC1C0B53EC102B7F
:1035B0009DED080B51EC100BFCF729FF53EC1A2B77
:1035C000FCF728FF9FED5E1B53EC112BFCF725FF4A
:1035D00053EC1C2BFCF77AFE41EC1A0B51EC1B0B45
:1035E00053EC1A2BFCF772FECDE902019DED020BA4
:1035F00053EC1B2B51EC100BFCF709FF53EC1A2B6F
:10360000FCF708FF9DED020B41EC1A0B53EC102B5D
:1036100051EC100BFCF701FFCDE908014A489DED84
:10362000080B0521784400F097F89DED081B51EC3C
:10363000100B53EC112BFCF7F0FE9DED021B53EC2D
:10364000112BFCF7E7FECDE906019DED020B53ECD3
:103650001A2B51EC100BFCF7E0FE53EC1A2BFCF785
:1036600035FE9FED3B0B41EC1A0B53EC102B9DEDFF
:10367000060B51EC100BFCF7CAFE9DED060B41EC5E
:103680001B0B53EC102B9DED020B51EC100BFCF7B8
:10369000C4FE53EC1B2BFCF732FF53EC1A2BFCF748
:1036A000B6FE9DED021B53EC112BFCF7B0FE53EC64
:1036B000192BFCF7AFFECDE9020101EB0650011515
:1036C0000029C8BF039015DC9DED020B324651EC7A
:1036D000100BFDF705F9FFF7E1F9042808BF00F02A
:1036E000FBF832469DED020B51EC100BFDF7F8F89C
:1036F000CDE902019DED020B51EC180B53EC102BA0
:10370000FCF78BFEFFF73ABB000090400000000082
:10371000FE822B654715973C00CC904000346F3FEC
:1037200001FCFFFF0000E03F28070000FFFF0F0043
:1037300000000000432EE63F396CA80C615C20BEFF
:10374000EF39FAFE422EE63FF805000000000000C7
:10375000000000000000004070B504462DED028B13
:103760004D1E00EBC500B0EE408AF0EE608A90ED91
:10377000000B35F0060017D053EC182B51EC100B52
:10378000FCF74BFE41EC100B6D1E04EBC50090EDF9
:10379000001B51EC100B53EC112BFCF797FD41EC87
:1037A000100B35F00600E7D1022D36D0042D1CD0C9
:1037B000062D1CBFBDEC028B70BD53EC182B51ECD9
:1037C000100BFCF72AFE94ED0A1B53EC112BFCF7AF
:1037D0007DFD53EC182BFCF720FE94ED081B53ECF9
:1037E000112BFCF773FD41EC100B53EC182B51EC33
:1037F000100BFCF712FE94ED061B53EC112BFCF79B
:1038000065FD53EC182BFCF708FE94ED040B53EC0C
:10381000102BFCF75BFD41EC100B53EC182B51EC1B
:10382000100BFCF7FAFD94ED021B53EC112BFCF787
:103830004DFD53EC182BFCF7F0FD94ED001B53EC01
:10384000112BFCF743FDBDEC028B41EC100B70BD5E
:103850009FED070B10B553EC102B9FED070B51ECB0
:10386000100BFCF74CFE41EC100B10BD00000000EB
:103870000000000000000000000000000000F03F19
:1038800010B553EC112B51EC100BFCF71FFD41EC64
:10389000100B10BD000000009FED050B10B553ECA0
:1038A000102B51EC100BFCF72AFE41EC100B10BD55
:1038B00000000000000000009FED050B10B553EC68
:1038C000102B51EC100BFCF7A8FD41EC100B10BDB8
:1038D00000000000000000709FED050B10B553ECD8
:1038E000102B51EC100BFCF798FD41EC100B10BDA8
:1038F000000000000000001002E008C8121F08C10C
:10390000002AFAD170477047002001E001C1121F60
:10391000002AFBD170470000014908607047000091
:103920008000002082B0CDE9000121F0004001902C
:103930009DED000B02B051EC100B704710B5002844
:1039400021D0114B0022001F196803E0814203D8E7
:103950000A4649680029F9D152B11368841A9C4279
:1039600004D1006818441060104602E0506000E086
:10397000186039B102680B1A934203D10B681A44DC
:1039800002604968416010BD78000020FDF78EFD9F
:10399000FFF716F8FEF77AFFFEF7BAFFFEF7E4FF2F
:1039A00007E0FEF703FFFDF735F8FEF70BFD00F02B
:1039B00037F8F6E7F0B50B30154D20F0070100247D
:1039C000144A0FE003688B420BD38B4205D95E1A71
:1039D00043184768C3E9006700E04368136002C00A
:1039E00004E0021D10680028ECD12046002802D116
:1039F000286808B10020F0BD064A07481060074A51
:103A0000121A22F00702C0E9002401202860D7E73B
:103A10007C000020780000203401002030030020CA
:103A200070B52DED048B3C480668F000FFF7C2FF2F
:103A300004469FED3A0BB0EE409AF0EE609A39489A
:103A4000006864285CDD3448006805280EDA3648D2
:103A500090ED000B3048006804EBC00080ED000BD7
:103A60002D480068401C2C49086046E09FED2B8BD8
:103A7000002519E0681C04EBC00090ED000B04EB7E
:103A8000C50080ED000B04EBC50090ED001BB0EE0F
:103A9000410AF0EE610A53EC102B51EC180BFCF7C5
:103AA00015FC41EC180B6D1C042DE3DB1E4890ED5A
:103AB000000B19480068401E04EBC00080ED000BAD
:103AC00015480068401E04EBC00090ED001BB0EEEE
:103AD000410AF0EE610A53EC102B51EC180BFCF785
:103AE000F5FB41EC180B9FED110B53EC102B51EC37
:103AF000180BFCF704FD41EC190B64200949086020
:103B000008480068401C074908602046FFF716FF78
:103B1000BDEC048B70BD00006400002000000000BC
:103B2000000000006000002058000020000000009D
:103B30000000144000B52DED048B83B041EC190B4F
:103B4000FCF710FF41EC180B18EE100A18EE901A53
:103B50008DED008B002818BF0120084320F00040A5
:103B6000C0F17F6000F1E040C00F14D019EE101AD0
:103B700019EE900A8DED009B002918BF0121084322
:103B800020F00040C0F17F6000F1E040C00F04BFB2
:103B90000120FFF7C1FE51EC180B03B0BDEC048B04
:103BA00000BD000000000000000001020304060741
:103BB00008090000000001020304000000000000EA
:103BC000000000000000F03F000000000000F83F8F
:103BD00000000000000000000000004003B8E23FC9
:103BE000000000000000000006D0CF43EBFD4C3E7B
:103BF000033333333333E33FFFAB6FDBB66DDB3F70
:103C00004D268F515555D53F01411DA96074D13FB7
:103C100065DBC9934A86CD3FEF4E454A287ECA3FB1
:103C20003E5555555555C53F93BDBE166CC166BF33
:103C30002CDE25AF6A56113FF16BD2C541BDBBBE2C
:103C4000D0A4BE726937663E00000000000000008C
:103C5000703C00080000002084000000F8380008D4
:103C6000F43C000884000020AC060000083900087D
:103C70000000000000000000000000000000000044
:103C80000000000000000000000000000000000034
:103C90000000000000000000000000000000000024
:103CA0000000000000000000000000000000000014
:103CB0000000000000000000000000000000000004
:103CC00000000000000000000000000000000000F4
:103CD00000000000000000000000000010000000D4
:103CE000010000000024F4000000000000000000BB
:043CF00000000000D0
:04000005080001AD41
:00000001FF
